{
  "_format": "hh-sol-artifact-1",
  "contractName": "Pixel",
  "sourceName": "contracts/Pixel.sol",
  "abi": [
    {
      "inputs": [],
      "stateMutability": "nonpayable",
      "type": "constructor"
    },
    {
      "anonymous": false,
      "inputs": [
        {
          "indexed": true,
          "internalType": "address",
          "name": "owner",
          "type": "address"
        },
        {
          "indexed": true,
          "internalType": "address",
          "name": "approved",
          "type": "address"
        },
        {
          "indexed": true,
          "internalType": "uint256",
          "name": "tokenId",
          "type": "uint256"
        }
      ],
      "name": "Approval",
      "type": "event"
    },
    {
      "anonymous": false,
      "inputs": [
        {
          "indexed": true,
          "internalType": "address",
          "name": "owner",
          "type": "address"
        },
        {
          "indexed": true,
          "internalType": "address",
          "name": "operator",
          "type": "address"
        },
        {
          "indexed": false,
          "internalType": "bool",
          "name": "approved",
          "type": "bool"
        }
      ],
      "name": "ApprovalForAll",
      "type": "event"
    },
    {
      "anonymous": false,
      "inputs": [
        {
          "indexed": true,
          "internalType": "address",
          "name": "previousOwner",
          "type": "address"
        },
        {
          "indexed": true,
          "internalType": "address",
          "name": "newOwner",
          "type": "address"
        }
      ],
      "name": "OwnershipTransferred",
      "type": "event"
    },
    {
      "anonymous": false,
      "inputs": [
        {
          "indexed": false,
          "internalType": "address",
          "name": "account",
          "type": "address"
        }
      ],
      "name": "Paused",
      "type": "event"
    },
    {
      "anonymous": false,
      "inputs": [
        {
          "indexed": false,
          "internalType": "address",
          "name": "",
          "type": "address"
        },
        {
          "indexed": false,
          "internalType": "uint256",
          "name": "",
          "type": "uint256"
        }
      ],
      "name": "Received",
      "type": "event"
    },
    {
      "anonymous": false,
      "inputs": [
        {
          "indexed": true,
          "internalType": "address",
          "name": "from",
          "type": "address"
        },
        {
          "indexed": true,
          "internalType": "address",
          "name": "to",
          "type": "address"
        },
        {
          "indexed": true,
          "internalType": "uint256",
          "name": "tokenId",
          "type": "uint256"
        }
      ],
      "name": "Transfer",
      "type": "event"
    },
    {
      "anonymous": false,
      "inputs": [
        {
          "indexed": false,
          "internalType": "address",
          "name": "account",
          "type": "address"
        }
      ],
      "name": "Unpaused",
      "type": "event"
    },
    {
      "inputs": [],
      "name": "MAX_MINT",
      "outputs": [
        {
          "internalType": "uint256",
          "name": "",
          "type": "uint256"
        }
      ],
      "stateMutability": "view",
      "type": "function"
    },
    {
      "inputs": [],
      "name": "_tokenIdCounter",
      "outputs": [
        {
          "internalType": "uint256",
          "name": "_value",
          "type": "uint256"
        }
      ],
      "stateMutability": "view",
      "type": "function"
    },
    {
      "inputs": [
        {
          "internalType": "address",
          "name": "to",
          "type": "address"
        },
        {
          "internalType": "uint256",
          "name": "tokenId",
          "type": "uint256"
        }
      ],
      "name": "approve",
      "outputs": [],
      "stateMutability": "nonpayable",
      "type": "function"
    },
    {
      "inputs": [
        {
          "internalType": "address",
          "name": "owner",
          "type": "address"
        }
      ],
      "name": "balanceOf",
      "outputs": [
        {
          "internalType": "uint256",
          "name": "",
          "type": "uint256"
        }
      ],
      "stateMutability": "view",
      "type": "function"
    },
    {
      "inputs": [],
      "name": "baseURI",
      "outputs": [
        {
          "internalType": "string",
          "name": "",
          "type": "string"
        }
      ],
      "stateMutability": "view",
      "type": "function"
    },
    {
      "inputs": [
        {
          "internalType": "uint256",
          "name": "tokenId",
          "type": "uint256"
        }
      ],
      "name": "getApproved",
      "outputs": [
        {
          "internalType": "address",
          "name": "",
          "type": "address"
        }
      ],
      "stateMutability": "view",
      "type": "function"
    },
    {
      "inputs": [],
      "name": "getCurrentCounter",
      "outputs": [
        {
          "internalType": "uint256",
          "name": "",
          "type": "uint256"
        }
      ],
      "stateMutability": "view",
      "type": "function"
    },
    {
      "inputs": [
        {
          "internalType": "uint256",
          "name": "_offset",
          "type": "uint256"
        },
        {
          "internalType": "uint256",
          "name": "_limit",
          "type": "uint256"
        }
      ],
      "name": "getNFTData",
      "outputs": [
        {
          "internalType": "string[]",
          "name": "",
          "type": "string[]"
        }
      ],
      "stateMutability": "view",
      "type": "function"
    },
    {
      "inputs": [
        {
          "internalType": "address",
          "name": "_owner",
          "type": "address"
        },
        {
          "internalType": "uint256",
          "name": "_offset",
          "type": "uint256"
        },
        {
          "internalType": "uint256",
          "name": "_limit",
          "type": "uint256"
        }
      ],
      "name": "getOwnerNFTData",
      "outputs": [
        {
          "internalType": "string[]",
          "name": "",
          "type": "string[]"
        }
      ],
      "stateMutability": "view",
      "type": "function"
    },
    {
      "inputs": [
        {
          "internalType": "address",
          "name": "owner",
          "type": "address"
        },
        {
          "internalType": "address",
          "name": "operator",
          "type": "address"
        }
      ],
      "name": "isApprovedForAll",
      "outputs": [
        {
          "internalType": "bool",
          "name": "",
          "type": "bool"
        }
      ],
      "stateMutability": "view",
      "type": "function"
    },
    {
      "inputs": [],
      "name": "name",
      "outputs": [
        {
          "internalType": "string",
          "name": "",
          "type": "string"
        }
      ],
      "stateMutability": "view",
      "type": "function"
    },
    {
      "inputs": [
        {
          "internalType": "uint256",
          "name": "",
          "type": "uint256"
        }
      ],
      "name": "nftData",
      "outputs": [
        {
          "internalType": "string",
          "name": "",
          "type": "string"
        }
      ],
      "stateMutability": "view",
      "type": "function"
    },
    {
      "inputs": [],
      "name": "owner",
      "outputs": [
        {
          "internalType": "address",
          "name": "",
          "type": "address"
        }
      ],
      "stateMutability": "view",
      "type": "function"
    },
    {
      "inputs": [
        {
          "internalType": "uint256",
          "name": "tokenId",
          "type": "uint256"
        }
      ],
      "name": "ownerOf",
      "outputs": [
        {
          "internalType": "address",
          "name": "",
          "type": "address"
        }
      ],
      "stateMutability": "view",
      "type": "function"
    },
    {
      "inputs": [],
      "name": "pause",
      "outputs": [],
      "stateMutability": "nonpayable",
      "type": "function"
    },
    {
      "inputs": [],
      "name": "paused",
      "outputs": [
        {
          "internalType": "bool",
          "name": "",
          "type": "bool"
        }
      ],
      "stateMutability": "view",
      "type": "function"
    },
    {
      "inputs": [],
      "name": "price",
      "outputs": [
        {
          "internalType": "uint256",
          "name": "",
          "type": "uint256"
        }
      ],
      "stateMutability": "view",
      "type": "function"
    },
    {
      "inputs": [],
      "name": "renounceOwnership",
      "outputs": [],
      "stateMutability": "nonpayable",
      "type": "function"
    },
    {
      "inputs": [
        {
          "internalType": "string",
          "name": "data",
          "type": "string"
        }
      ],
      "name": "safeMint",
      "outputs": [],
      "stateMutability": "payable",
      "type": "function"
    },
    {
      "inputs": [
        {
          "internalType": "address",
          "name": "from",
          "type": "address"
        },
        {
          "internalType": "address",
          "name": "to",
          "type": "address"
        },
        {
          "internalType": "uint256",
          "name": "tokenId",
          "type": "uint256"
        }
      ],
      "name": "safeTransferFrom",
      "outputs": [],
      "stateMutability": "nonpayable",
      "type": "function"
    },
    {
      "inputs": [
        {
          "internalType": "address",
          "name": "from",
          "type": "address"
        },
        {
          "internalType": "address",
          "name": "to",
          "type": "address"
        },
        {
          "internalType": "uint256",
          "name": "tokenId",
          "type": "uint256"
        },
        {
          "internalType": "bytes",
          "name": "_data",
          "type": "bytes"
        }
      ],
      "name": "safeTransferFrom",
      "outputs": [],
      "stateMutability": "nonpayable",
      "type": "function"
    },
    {
      "inputs": [
        {
          "internalType": "address",
          "name": "operator",
          "type": "address"
        },
        {
          "internalType": "bool",
          "name": "approved",
          "type": "bool"
        }
      ],
      "name": "setApprovalForAll",
      "outputs": [],
      "stateMutability": "nonpayable",
      "type": "function"
    },
    {
      "inputs": [
        {
          "internalType": "string",
          "name": "_uri",
          "type": "string"
        }
      ],
      "name": "setBaseURI",
      "outputs": [],
      "stateMutability": "nonpayable",
      "type": "function"
    },
    {
      "inputs": [
        {
          "internalType": "uint256",
          "name": "newPrice",
          "type": "uint256"
        }
      ],
      "name": "setPrice",
      "outputs": [],
      "stateMutability": "nonpayable",
      "type": "function"
    },
    {
      "inputs": [
        {
          "internalType": "uint256[]",
          "name": "_ids",
          "type": "uint256[]"
        },
        {
          "internalType": "string[]",
          "name": "_tokensURI",
          "type": "string[]"
        }
      ],
      "name": "setTokensUri",
      "outputs": [],
      "stateMutability": "nonpayable",
      "type": "function"
    },
    {
      "inputs": [
        {
          "internalType": "bytes4",
          "name": "interfaceId",
          "type": "bytes4"
        }
      ],
      "name": "supportsInterface",
      "outputs": [
        {
          "internalType": "bool",
          "name": "",
          "type": "bool"
        }
      ],
      "stateMutability": "view",
      "type": "function"
    },
    {
      "inputs": [],
      "name": "symbol",
      "outputs": [
        {
          "internalType": "string",
          "name": "",
          "type": "string"
        }
      ],
      "stateMutability": "view",
      "type": "function"
    },
    {
      "inputs": [
        {
          "internalType": "uint256",
          "name": "index",
          "type": "uint256"
        }
      ],
      "name": "tokenByIndex",
      "outputs": [
        {
          "internalType": "uint256",
          "name": "",
          "type": "uint256"
        }
      ],
      "stateMutability": "view",
      "type": "function"
    },
    {
      "inputs": [
        {
          "internalType": "address",
          "name": "owner",
          "type": "address"
        },
        {
          "internalType": "uint256",
          "name": "index",
          "type": "uint256"
        }
      ],
      "name": "tokenOfOwnerByIndex",
      "outputs": [
        {
          "internalType": "uint256",
          "name": "",
          "type": "uint256"
        }
      ],
      "stateMutability": "view",
      "type": "function"
    },
    {
      "inputs": [
        {
          "internalType": "uint256",
          "name": "tokenId",
          "type": "uint256"
        }
      ],
      "name": "tokenURI",
      "outputs": [
        {
          "internalType": "string",
          "name": "",
          "type": "string"
        }
      ],
      "stateMutability": "view",
      "type": "function"
    },
    {
      "inputs": [],
      "name": "totalSupply",
      "outputs": [
        {
          "internalType": "uint256",
          "name": "",
          "type": "uint256"
        }
      ],
      "stateMutability": "view",
      "type": "function"
    },
    {
      "inputs": [
        {
          "internalType": "address",
          "name": "from",
          "type": "address"
        },
        {
          "internalType": "address",
          "name": "to",
          "type": "address"
        },
        {
          "internalType": "uint256",
          "name": "tokenId",
          "type": "uint256"
        }
      ],
      "name": "transferFrom",
      "outputs": [],
      "stateMutability": "nonpayable",
      "type": "function"
    },
    {
      "inputs": [
        {
          "internalType": "address",
          "name": "newOwner",
          "type": "address"
        }
      ],
      "name": "transferOwnership",
      "outputs": [],
      "stateMutability": "nonpayable",
      "type": "function"
    },
    {
      "inputs": [],
      "name": "unpause",
      "outputs": [],
      "stateMutability": "nonpayable",
      "type": "function"
    },
    {
      "inputs": [],
      "name": "withdraw",
      "outputs": [],
      "stateMutability": "nonpayable",
      "type": "function"
    },
    {
      "stateMutability": "payable",
      "type": "receive"
    }
  ],
  "bytecode": "0x6080604052674563918244f40000600e553480156200001d57600080fd5b506040518060400160405280600581526020017f506978656c0000000000000000000000000000000000000000000000000000008152506040518060400160405280600981526020017f506978656c204e465400000000000000000000000000000000000000000000008152508160009080519060200190620000a2929190620001fa565b508060019080519060200190620000bb929190620001fa565b5050506000600b60006101000a81548160ff021916908315150217905550620000f9620000ed6200011660201b60201c565b6200011e60201b60201c565b62000110600c620001e460201b62001dbe1760201c565b6200030f565b600033905090565b6000600b60019054906101000a900473ffffffffffffffffffffffffffffffffffffffff16905081600b60016101000a81548173ffffffffffffffffffffffffffffffffffffffff021916908373ffffffffffffffffffffffffffffffffffffffff1602179055508173ffffffffffffffffffffffffffffffffffffffff168173ffffffffffffffffffffffffffffffffffffffff167f8be0079c531659141344cd1fd0a4f28419497f9722a3daafe3b4186f6b6457e060405160405180910390a35050565b6001816000016000828254019250508190555050565b8280546200020890620002aa565b90600052602060002090601f0160209004810192826200022c576000855562000278565b82601f106200024757805160ff191683800117855562000278565b8280016001018555821562000278579182015b82811115620002775782518255916020019190600101906200025a565b5b5090506200028791906200028b565b5090565b5b80821115620002a65760008160009055506001016200028c565b5090565b60006002820490506001821680620002c357607f821691505b60208210811415620002da57620002d9620002e0565b5b50919050565b7f4e487b7100000000000000000000000000000000000000000000000000000000600052602260045260246000fd5b614fcf806200031f6000396000f3fe6080604052600436106102085760003560e01c8063695850fb1161011857806391b7f5ed116100a0578063b88d4fde1161006f578063b88d4fde1461078c578063c87b56dd146107b5578063e985e9c5146107f2578063f0292a031461082f578063f2fde38b1461085a57610248565b806391b7f5ed146106e457806395d89b411461070d578063a035b1fe14610738578063a22cb4651461076357610248565b806373448c46116100e757806373448c461461060f5780638456cb591461063a57806384c4bd4b146106515780638c2109751461067c5780638da5cb5b146106b957610248565b8063695850fb146105745780636c0360eb1461059057806370a08231146105bb578063715018a6146105f857610248565b80633f4ba83a1161019b5780634f6ccce71161016a5780634f6ccce71461046957806355f804b3146104a65780635c975abb146104cf5780636352211e146104fa578063674ebacf1461053757610248565b80633f4ba83a146103c357806342842e0e146103da5780634501fd28146104035780634d8d8a2e1461044057610248565b806318160ddd116101d757806318160ddd1461031b57806323b872dd146103465780632f745c591461036f5780633ccfd60b146103ac57610248565b806301ffc9a71461024d57806306fdde031461028a578063081812fc146102b5578063095ea7b3146102f257610248565b36610248577f88a5966d370b9919b20f3e2c13ff65706f196a4e32cc2c12bf57088f88525874333460405161023e929190614023565b60405180910390a1005b600080fd5b34801561025957600080fd5b50610274600480360381019061026f9190613980565b610883565b604051610281919061406e565b60405180910390f35b34801561029657600080fd5b5061029f610895565b6040516102ac9190614089565b60405180910390f35b3480156102c157600080fd5b506102dc60048036038101906102d79190613a13565b610927565b6040516102e99190613fbc565b60405180910390f35b3480156102fe57600080fd5b5061031960048036038101906103149190613889565b6109ac565b005b34801561032757600080fd5b50610330610ac4565b60405161033d91906143eb565b60405180910390f35b34801561035257600080fd5b5061036d60048036038101906103689190613783565b610ad1565b005b34801561037b57600080fd5b5061039660048036038101906103919190613889565b610b31565b6040516103a391906143eb565b60405180910390f35b3480156103b857600080fd5b506103c1610bd6565b005b3480156103cf57600080fd5b506103d8610ca1565b005b3480156103e657600080fd5b5061040160048036038101906103fc9190613783565b610d27565b005b34801561040f57600080fd5b5061042a60048036038101906104259190613a3c565b610d47565b604051610437919061404c565b60405180910390f35b34801561044c57600080fd5b5061046760048036038101906104629190613914565b610f09565b005b34801561047557600080fd5b50610490600480360381019061048b9190613a13565b6110bb565b60405161049d91906143eb565b60405180910390f35b3480156104b257600080fd5b506104cd60048036038101906104c891906139d2565b611152565b005b3480156104db57600080fd5b506104e46111e8565b6040516104f1919061406e565b60405180910390f35b34801561050657600080fd5b50610521600480360381019061051c9190613a13565b6111ff565b60405161052e9190613fbc565b60405180910390f35b34801561054357600080fd5b5061055e600480360381019061055991906138c5565b6112b1565b60405161056b919061404c565b60405180910390f35b61058e600480360381019061058991906139d2565b611482565b005b34801561059c57600080fd5b506105a56115de565b6040516105b29190614089565b60405180910390f35b3480156105c757600080fd5b506105e260048036038101906105dd919061371e565b61166c565b6040516105ef91906143eb565b60405180910390f35b34801561060457600080fd5b5061060d611724565b005b34801561061b57600080fd5b506106246117ac565b60405161063191906143eb565b60405180910390f35b34801561064657600080fd5b5061064f6117bd565b005b34801561065d57600080fd5b50610666611843565b60405161067391906143eb565b60405180910390f35b34801561068857600080fd5b506106a3600480360381019061069e9190613a13565b61184f565b6040516106b09190614089565b60405180910390f35b3480156106c557600080fd5b506106ce6118ef565b6040516106db9190613fbc565b60405180910390f35b3480156106f057600080fd5b5061070b60048036038101906107069190613a13565b611919565b005b34801561071957600080fd5b5061072261199f565b60405161072f9190614089565b60405180910390f35b34801561074457600080fd5b5061074d611a31565b60405161075a91906143eb565b60405180910390f35b34801561076f57600080fd5b5061078a6004803603810190610785919061384d565b611a37565b005b34801561079857600080fd5b506107b360048036038101906107ae91906137d2565b611bb8565b005b3480156107c157600080fd5b506107dc60048036038101906107d79190613a13565b611c1a565b6040516107e99190614089565b60405180910390f35b3480156107fe57600080fd5b5061081960048036038101906108149190613747565b611c2c565b604051610826919061406e565b60405180910390f35b34801561083b57600080fd5b50610844611cc0565b60405161085191906143eb565b60405180910390f35b34801561086657600080fd5b50610881600480360381019061087c919061371e565b611cc6565b005b600061088e82611dd4565b9050919050565b6060600080546108a4906146e3565b80601f01602080910402602001604051908101604052809291908181526020018280546108d0906146e3565b801561091d5780601f106108f25761010080835404028352916020019161091d565b820191906000526020600020905b81548152906001019060200180831161090057829003601f168201915b5050505050905090565b600061093282611e4e565b610971576040517f08c379a0000000000000000000000000000000000000000000000000000000008152600401610968906142eb565b60405180910390fd5b6004600083815260200190815260200160002060009054906101000a900473ffffffffffffffffffffffffffffffffffffffff169050919050565b60006109b7826111ff565b90508073ffffffffffffffffffffffffffffffffffffffff168373ffffffffffffffffffffffffffffffffffffffff161415610a28576040517f08c379a0000000000000000000000000000000000000000000000000000000008152600401610a1f9061436b565b60405180910390fd5b8073ffffffffffffffffffffffffffffffffffffffff16610a47611eba565b73ffffffffffffffffffffffffffffffffffffffff161480610a765750610a7581610a70611eba565b611c2c565b5b610ab5576040517f08c379a0000000000000000000000000000000000000000000000000000000008152600401610aac9061420b565b60405180910390fd5b610abf8383611ec2565b505050565b6000600980549050905090565b610ae2610adc611eba565b82611f7b565b610b21576040517f08c379a0000000000000000000000000000000000000000000000000000000008152600401610b189061438b565b60405180910390fd5b610b2c838383612059565b505050565b6000610b3c8361166c565b8210610b7d576040517f08c379a0000000000000000000000000000000000000000000000000000000008152600401610b74906140cb565b60405180910390fd5b600760008473ffffffffffffffffffffffffffffffffffffffff1673ffffffffffffffffffffffffffffffffffffffff168152602001908152602001600020600083815260200190815260200160002054905092915050565b610bde611eba565b73ffffffffffffffffffffffffffffffffffffffff16610bfc6118ef565b73ffffffffffffffffffffffffffffffffffffffff1614610c52576040517f08c379a0000000000000000000000000000000000000000000000000000000008152600401610c499061430b565b60405180910390fd5b60004790503373ffffffffffffffffffffffffffffffffffffffff166108fc829081150290604051600060405180830381858888f19350505050158015610c9d573d6000803e3d6000fd5b5050565b610ca9611eba565b73ffffffffffffffffffffffffffffffffffffffff16610cc76118ef565b73ffffffffffffffffffffffffffffffffffffffff1614610d1d576040517f08c379a0000000000000000000000000000000000000000000000000000000008152600401610d149061430b565b60405180910390fd5b610d256122b5565b565b610d4283838360405180602001604052806000815250611bb8565b505050565b60606000610d55600c612357565b905060008367ffffffffffffffff811115610d99577f4e487b7100000000000000000000000000000000000000000000000000000000600052604160045260246000fd5b604051908082528060200260200182016040528015610dcc57816020015b6060815260200190600190039081610db75790505b5090506000808690505b8587610de29190614572565b811015610efb57838110610dfc5782945050505050610f03565b600d60008281526020019081526020016000208054610e1a906146e3565b80601f0160208091040260200160405190810160405280929190818152602001828054610e46906146e3565b8015610e935780601f10610e6857610100808354040283529160200191610e93565b820191906000526020600020905b815481529060010190602001808311610e7657829003601f168201915b5050505050838380610ea490614746565b945081518110610edd577f4e487b7100000000000000000000000000000000000000000000000000000000600052603260045260246000fd5b60200260200101819052508080610ef390614746565b915050610dd6565b508193505050505b92915050565b610f11611eba565b73ffffffffffffffffffffffffffffffffffffffff16610f2f6118ef565b73ffffffffffffffffffffffffffffffffffffffff1614610f85576040517f08c379a0000000000000000000000000000000000000000000000000000000008152600401610f7c9061430b565b60405180910390fd5b6000825111610fc9576040517f08c379a0000000000000000000000000000000000000000000000000000000008152600401610fc0906143cb565b60405180910390fd5b805182511461100d576040517f08c379a0000000000000000000000000000000000000000000000000000000008152600401611004906142ab565b60405180910390fd5b60005b82518110156110b6576110a3838281518110611055577f4e487b7100000000000000000000000000000000000000000000000000000000600052603260045260246000fd5b6020026020010151838381518110611096577f4e487b7100000000000000000000000000000000000000000000000000000000600052603260045260246000fd5b6020026020010151612365565b80806110ae90614746565b915050611010565b505050565b60006110c5610ac4565b8210611106576040517f08c379a00000000000000000000000000000000000000000000000000000000081526004016110fd906143ab565b60405180910390fd5b60098281548110611140577f4e487b7100000000000000000000000000000000000000000000000000000000600052603260045260246000fd5b90600052602060002001549050919050565b61115a611eba565b73ffffffffffffffffffffffffffffffffffffffff166111786118ef565b73ffffffffffffffffffffffffffffffffffffffff16146111ce576040517f08c379a00000000000000000000000000000000000000000000000000000000081526004016111c59061430b565b60405180910390fd5b80600f90805190602001906111e49291906133fc565b5050565b6000600b60009054906101000a900460ff16905090565b6000806002600084815260200190815260200160002060009054906101000a900473ffffffffffffffffffffffffffffffffffffffff169050600073ffffffffffffffffffffffffffffffffffffffff168173ffffffffffffffffffffffffffffffffffffffff1614156112a8576040517f08c379a000000000000000000000000000000000000000000000000000000000815260040161129f9061424b565b60405180910390fd5b80915050919050565b606060006112be8561166c565b905060008367ffffffffffffffff811115611302577f4e487b7100000000000000000000000000000000000000000000000000000000600052604160045260246000fd5b60405190808252806020026020018201604052801561133557816020015b60608152602001906001900390816113205790505b5090506000808690505b858761134b9190614572565b81101561147357838110611365578294505050505061147b565b60006113718983610b31565b9050600d60008281526020019081526020016000208054611391906146e3565b80601f01602080910402602001604051908101604052809291908181526020018280546113bd906146e3565b801561140a5780601f106113df5761010080835404028352916020019161140a565b820191906000526020600020905b8154815290600101906020018083116113ed57829003601f168201915b505050505084848061141b90614746565b955081518110611454577f4e487b7100000000000000000000000000000000000000000000000000000000600052603260045260246000fd5b602002602001018190525050808061146b90614746565b91505061133f565b508193505050505b9392505050565b61148a6111e8565b156114ca576040517f08c379a00000000000000000000000000000000000000000000000000000000081526004016114c1906141eb565b60405180910390fd5b60006114d6600c612357565b905061138881111561151d576040517f08c379a0000000000000000000000000000000000000000000000000000000008152600401611514906141ab565b60405180910390fd5b6115256118ef565b73ffffffffffffffffffffffffffffffffffffffff163373ffffffffffffffffffffffffffffffffffffffff16148061155f575034600e54145b61159e576040517f08c379a0000000000000000000000000000000000000000000000000000000008152600401611595906141cb565b60405180910390fd5b6115a8600c611dbe565b6115b233826123d9565b81600d600083815260200190815260200160002090805190602001906115d99291906133fc565b505050565b600f80546115eb906146e3565b80601f0160208091040260200160405190810160405280929190818152602001828054611617906146e3565b80156116645780601f1061163957610100808354040283529160200191611664565b820191906000526020600020905b81548152906001019060200180831161164757829003601f168201915b505050505081565b60008073ffffffffffffffffffffffffffffffffffffffff168273ffffffffffffffffffffffffffffffffffffffff1614156116dd576040517f08c379a00000000000000000000000000000000000000000000000000000000081526004016116d49061422b565b60405180910390fd5b600360008373ffffffffffffffffffffffffffffffffffffffff1673ffffffffffffffffffffffffffffffffffffffff168152602001908152602001600020549050919050565b61172c611eba565b73ffffffffffffffffffffffffffffffffffffffff1661174a6118ef565b73ffffffffffffffffffffffffffffffffffffffff16146117a0576040517f08c379a00000000000000000000000000000000000000000000000000000000081526004016117979061430b565b60405180910390fd5b6117aa60006123f7565b565b60006117b8600c612357565b905090565b6117c5611eba565b73ffffffffffffffffffffffffffffffffffffffff166117e36118ef565b73ffffffffffffffffffffffffffffffffffffffff1614611839576040517f08c379a00000000000000000000000000000000000000000000000000000000081526004016118309061430b565b60405180910390fd5b6118416124bd565b565b600c8060000154905081565b600d602052806000526040600020600091509050805461186e906146e3565b80601f016020809104026020016040519081016040528092919081815260200182805461189a906146e3565b80156118e75780601f106118bc576101008083540402835291602001916118e7565b820191906000526020600020905b8154815290600101906020018083116118ca57829003601f168201915b505050505081565b6000600b60019054906101000a900473ffffffffffffffffffffffffffffffffffffffff16905090565b611921611eba565b73ffffffffffffffffffffffffffffffffffffffff1661193f6118ef565b73ffffffffffffffffffffffffffffffffffffffff1614611995576040517f08c379a000000000000000000000000000000000000000000000000000000000815260040161198c9061430b565b60405180910390fd5b80600e8190555050565b6060600180546119ae906146e3565b80601f01602080910402602001604051908101604052809291908181526020018280546119da906146e3565b8015611a275780601f106119fc57610100808354040283529160200191611a27565b820191906000526020600020905b815481529060010190602001808311611a0a57829003601f168201915b5050505050905090565b600e5481565b611a3f611eba565b73ffffffffffffffffffffffffffffffffffffffff168273ffffffffffffffffffffffffffffffffffffffff161415611aad576040517f08c379a0000000000000000000000000000000000000000000000000000000008152600401611aa49061416b565b60405180910390fd5b8060056000611aba611eba565b73ffffffffffffffffffffffffffffffffffffffff1673ffffffffffffffffffffffffffffffffffffffff16815260200190815260200160002060008473ffffffffffffffffffffffffffffffffffffffff1673ffffffffffffffffffffffffffffffffffffffff16815260200190815260200160002060006101000a81548160ff0219169083151502179055508173ffffffffffffffffffffffffffffffffffffffff16611b67611eba565b73ffffffffffffffffffffffffffffffffffffffff167f17307eab39ab6107e8899845ad3d59bd9653f200f220920489ca2b5937696c3183604051611bac919061406e565b60405180910390a35050565b611bc9611bc3611eba565b83611f7b565b611c08576040517f08c379a0000000000000000000000000000000000000000000000000000000008152600401611bff9061438b565b60405180910390fd5b611c1484848484612560565b50505050565b6060611c25826125bc565b9050919050565b6000600560008473ffffffffffffffffffffffffffffffffffffffff1673ffffffffffffffffffffffffffffffffffffffff16815260200190815260200160002060008373ffffffffffffffffffffffffffffffffffffffff1673ffffffffffffffffffffffffffffffffffffffff16815260200190815260200160002060009054906101000a900460ff16905092915050565b61138881565b611cce611eba565b73ffffffffffffffffffffffffffffffffffffffff16611cec6118ef565b73ffffffffffffffffffffffffffffffffffffffff1614611d42576040517f08c379a0000000000000000000000000000000000000000000000000000000008152600401611d399061430b565b60405180910390fd5b600073ffffffffffffffffffffffffffffffffffffffff168173ffffffffffffffffffffffffffffffffffffffff161415611db2576040517f08c379a0000000000000000000000000000000000000000000000000000000008152600401611da99061410b565b60405180910390fd5b611dbb816123f7565b50565b6001816000016000828254019250508190555050565b60007f780e9d63000000000000000000000000000000000000000000000000000000007bffffffffffffffffffffffffffffffffffffffffffffffffffffffff1916827bffffffffffffffffffffffffffffffffffffffffffffffffffffffff19161480611e475750611e468261270e565b5b9050919050565b60008073ffffffffffffffffffffffffffffffffffffffff166002600084815260200190815260200160002060009054906101000a900473ffffffffffffffffffffffffffffffffffffffff1673ffffffffffffffffffffffffffffffffffffffff1614159050919050565b600033905090565b816004600083815260200190815260200160002060006101000a81548173ffffffffffffffffffffffffffffffffffffffff021916908373ffffffffffffffffffffffffffffffffffffffff160217905550808273ffffffffffffffffffffffffffffffffffffffff16611f35836111ff565b73ffffffffffffffffffffffffffffffffffffffff167f8c5be1e5ebec7d5bd14f71427d1e84f3dd0314c0f7b2291e5b200ac8c7c3b92560405160405180910390a45050565b6000611f8682611e4e565b611fc5576040517f08c379a0000000000000000000000000000000000000000000000000000000008152600401611fbc9061418b565b60405180910390fd5b6000611fd0836111ff565b90508073ffffffffffffffffffffffffffffffffffffffff168473ffffffffffffffffffffffffffffffffffffffff16148061203f57508373ffffffffffffffffffffffffffffffffffffffff1661202784610927565b73ffffffffffffffffffffffffffffffffffffffff16145b80612050575061204f8185611c2c565b5b91505092915050565b8273ffffffffffffffffffffffffffffffffffffffff16612079826111ff565b73ffffffffffffffffffffffffffffffffffffffff16146120cf576040517f08c379a00000000000000000000000000000000000000000000000000000000081526004016120c69061432b565b60405180910390fd5b600073ffffffffffffffffffffffffffffffffffffffff168273ffffffffffffffffffffffffffffffffffffffff16141561213f576040517f08c379a00000000000000000000000000000000000000000000000000000000081526004016121369061414b565b60405180910390fd5b61214a8383836127f0565b612155600082611ec2565b6001600360008573ffffffffffffffffffffffffffffffffffffffff1673ffffffffffffffffffffffffffffffffffffffff16815260200190815260200160002060008282546121a591906145f9565b925050819055506001600360008473ffffffffffffffffffffffffffffffffffffffff1673ffffffffffffffffffffffffffffffffffffffff16815260200190815260200160002060008282546121fc9190614572565b92505081905550816002600083815260200190815260200160002060006101000a81548173ffffffffffffffffffffffffffffffffffffffff021916908373ffffffffffffffffffffffffffffffffffffffff160217905550808273ffffffffffffffffffffffffffffffffffffffff168473ffffffffffffffffffffffffffffffffffffffff167fddf252ad1be2c89b69c2b068fc378daa952ba7f163c4a11628f55a4df523b3ef60405160405180910390a4505050565b6122bd6111e8565b6122fc576040517f08c379a00000000000000000000000000000000000000000000000000000000081526004016122f3906140ab565b60405180910390fd5b6000600b60006101000a81548160ff0219169083151502179055507f5db9ee0a495bf2e6ff9c91a7834c1ba4fdd244a5e8aa4e537bd38aeae4b073aa612340611eba565b60405161234d9190613fbc565b60405180910390a1565b600081600001549050919050565b61236e82611e4e565b6123ad576040517f08c379a00000000000000000000000000000000000000000000000000000000081526004016123a49061426b565b60405180910390fd5b806006600084815260200190815260200160002090805190602001906123d49291906133fc565b505050565b6123f3828260405180602001604052806000815250612848565b5050565b6000600b60019054906101000a900473ffffffffffffffffffffffffffffffffffffffff16905081600b60016101000a81548173ffffffffffffffffffffffffffffffffffffffff021916908373ffffffffffffffffffffffffffffffffffffffff1602179055508173ffffffffffffffffffffffffffffffffffffffff168173ffffffffffffffffffffffffffffffffffffffff167f8be0079c531659141344cd1fd0a4f28419497f9722a3daafe3b4186f6b6457e060405160405180910390a35050565b6124c56111e8565b15612505576040517f08c379a00000000000000000000000000000000000000000000000000000000081526004016124fc906141eb565b60405180910390fd5b6001600b60006101000a81548160ff0219169083151502179055507f62e78cea01bee320cd4e420270b5ea74000d11b0c9f74754ebdbfc544b05a258612549611eba565b6040516125569190613fbc565b60405180910390a1565b61256b848484612059565b612577848484846128a3565b6125b6576040517f08c379a00000000000000000000000000000000000000000000000000000000081526004016125ad906140eb565b60405180910390fd5b50505050565b60606125c782611e4e565b612606576040517f08c379a00000000000000000000000000000000000000000000000000000000081526004016125fd906142cb565b60405180910390fd5b6000600660008481526020019081526020016000208054612626906146e3565b80601f0160208091040260200160405190810160405280929190818152602001828054612652906146e3565b801561269f5780601f106126745761010080835404028352916020019161269f565b820191906000526020600020905b81548152906001019060200180831161268257829003601f168201915b5050505050905060006126b0612a3a565b90506000815114156126c6578192505050612709565b6000825111156126fb5780826040516020016126e3929190613f98565b60405160208183030381529060405292505050612709565b61270484612acc565b925050505b919050565b60007f80ac58cd000000000000000000000000000000000000000000000000000000007bffffffffffffffffffffffffffffffffffffffffffffffffffffffff1916827bffffffffffffffffffffffffffffffffffffffffffffffffffffffff191614806127d957507f5b5e139f000000000000000000000000000000000000000000000000000000007bffffffffffffffffffffffffffffffffffffffffffffffffffffffff1916827bffffffffffffffffffffffffffffffffffffffffffffffffffffffff1916145b806127e957506127e882612b73565b5b9050919050565b6127f86111e8565b15612838576040517f08c379a000000000000000000000000000000000000000000000000000000000815260040161282f906141eb565b60405180910390fd5b612843838383612bdd565b505050565b6128528383612cf1565b61285f60008484846128a3565b61289e576040517f08c379a0000000000000000000000000000000000000000000000000000000008152600401612895906140eb565b60405180910390fd5b505050565b60006128c48473ffffffffffffffffffffffffffffffffffffffff16612ebf565b15612a2d578373ffffffffffffffffffffffffffffffffffffffff1663150b7a026128ed611eba565b8786866040518563ffffffff1660e01b815260040161290f9493929190613fd7565b602060405180830381600087803b15801561292957600080fd5b505af192505050801561295a57506040513d601f19601f8201168201806040525081019061295791906139a9565b60015b6129dd573d806000811461298a576040519150601f19603f3d011682016040523d82523d6000602084013e61298f565b606091505b506000815114156129d5576040517f08c379a00000000000000000000000000000000000000000000000000000000081526004016129cc906140eb565b60405180910390fd5b805181602001fd5b63150b7a0260e01b7bffffffffffffffffffffffffffffffffffffffffffffffffffffffff1916817bffffffffffffffffffffffffffffffffffffffffffffffffffffffff191614915050612a32565b600190505b949350505050565b6060600f8054612a49906146e3565b80601f0160208091040260200160405190810160405280929190818152602001828054612a75906146e3565b8015612ac25780601f10612a9757610100808354040283529160200191612ac2565b820191906000526020600020905b815481529060010190602001808311612aa557829003601f168201915b5050505050905090565b6060612ad782611e4e565b612b16576040517f08c379a0000000000000000000000000000000000000000000000000000000008152600401612b0d9061434b565b60405180910390fd5b6000612b20612a3a565b90506000815111612b405760405180602001604052806000815250612b6b565b80612b4a84612ed2565b604051602001612b5b929190613f98565b6040516020818303038152906040525b915050919050565b60007f01ffc9a7000000000000000000000000000000000000000000000000000000007bffffffffffffffffffffffffffffffffffffffffffffffffffffffff1916827bffffffffffffffffffffffffffffffffffffffffffffffffffffffff1916149050919050565b612be883838361307f565b600073ffffffffffffffffffffffffffffffffffffffff168373ffffffffffffffffffffffffffffffffffffffff161415612c2b57612c2681613084565b612c6a565b8173ffffffffffffffffffffffffffffffffffffffff168373ffffffffffffffffffffffffffffffffffffffff1614612c6957612c6883826130cd565b5b5b600073ffffffffffffffffffffffffffffffffffffffff168273ffffffffffffffffffffffffffffffffffffffff161415612cad57612ca88161323a565b612cec565b8273ffffffffffffffffffffffffffffffffffffffff168273ffffffffffffffffffffffffffffffffffffffff1614612ceb57612cea828261337d565b5b5b505050565b600073ffffffffffffffffffffffffffffffffffffffff168273ffffffffffffffffffffffffffffffffffffffff161415612d61576040517f08c379a0000000000000000000000000000000000000000000000000000000008152600401612d589061428b565b60405180910390fd5b612d6a81611e4e565b15612daa576040517f08c379a0000000000000000000000000000000000000000000000000000000008152600401612da19061412b565b60405180910390fd5b612db6600083836127f0565b6001600360008473ffffffffffffffffffffffffffffffffffffffff1673ffffffffffffffffffffffffffffffffffffffff1681526020019081526020016000206000828254612e069190614572565b92505081905550816002600083815260200190815260200160002060006101000a81548173ffffffffffffffffffffffffffffffffffffffff021916908373ffffffffffffffffffffffffffffffffffffffff160217905550808273ffffffffffffffffffffffffffffffffffffffff16600073ffffffffffffffffffffffffffffffffffffffff167fddf252ad1be2c89b69c2b068fc378daa952ba7f163c4a11628f55a4df523b3ef60405160405180910390a45050565b600080823b905060008111915050919050565b60606000821415612f1a576040518060400160405280600181526020017f3000000000000000000000000000000000000000000000000000000000000000815250905061307a565b600082905060005b60008214612f4c578080612f3590614746565b915050600a82612f4591906145c8565b9150612f22565b60008167ffffffffffffffff811115612f8e577f4e487b7100000000000000000000000000000000000000000000000000000000600052604160045260246000fd5b6040519080825280601f01601f191660200182016040528015612fc05781602001600182028036833780820191505090505b5090505b6000851461307357600182612fd991906145f9565b9150600a85612fe8919061478f565b6030612ff49190614572565b60f81b818381518110613030577f4e487b7100000000000000000000000000000000000000000000000000000000600052603260045260246000fd5b60200101907effffffffffffffffffffffffffffffffffffffffffffffffffffffffffffff1916908160001a905350600a8561306c91906145c8565b9450612fc4565b8093505050505b919050565b505050565b600980549050600a600083815260200190815260200160002081905550600981908060018154018082558091505060019003906000526020600020016000909190919091505550565b600060016130da8461166c565b6130e491906145f9565b90506000600860008481526020019081526020016000205490508181146131c9576000600760008673ffffffffffffffffffffffffffffffffffffffff1673ffffffffffffffffffffffffffffffffffffffff168152602001908152602001600020600084815260200190815260200160002054905080600760008773ffffffffffffffffffffffffffffffffffffffff1673ffffffffffffffffffffffffffffffffffffffff168152602001908152602001600020600084815260200190815260200160002081905550816008600083815260200190815260200160002081905550505b6008600084815260200190815260200160002060009055600760008573ffffffffffffffffffffffffffffffffffffffff1673ffffffffffffffffffffffffffffffffffffffff16815260200190815260200160002060008381526020019081526020016000206000905550505050565b6000600160098054905061324e91906145f9565b90506000600a60008481526020019081526020016000205490506000600983815481106132a4577f4e487b7100000000000000000000000000000000000000000000000000000000600052603260045260246000fd5b9060005260206000200154905080600983815481106132ec577f4e487b7100000000000000000000000000000000000000000000000000000000600052603260045260246000fd5b906000526020600020018190555081600a600083815260200190815260200160002081905550600a6000858152602001908152602001600020600090556009805480613361577f4e487b7100000000000000000000000000000000000000000000000000000000600052603160045260246000fd5b6001900381819060005260206000200160009055905550505050565b60006133888361166c565b905081600760008573ffffffffffffffffffffffffffffffffffffffff1673ffffffffffffffffffffffffffffffffffffffff168152602001908152602001600020600083815260200190815260200160002081905550806008600084815260200190815260200160002081905550505050565b828054613408906146e3565b90600052602060002090601f01602090048101928261342a5760008555613471565b82601f1061344357805160ff1916838001178555613471565b82800160010185558215613471579182015b82811115613470578251825591602001919060010190613455565b5b50905061347e9190613482565b5090565b5b8082111561349b576000816000905550600101613483565b5090565b60006134b26134ad8461442b565b614406565b905080838252602082019050828560208602820111156134d157600080fd5b60005b8581101561351b57813567ffffffffffffffff8111156134f357600080fd5b80860161350089826136df565b855260208501945060208401935050506001810190506134d4565b5050509392505050565b600061353861353384614457565b614406565b9050808382526020820190508285602086028201111561355757600080fd5b60005b85811015613587578161356d8882613709565b84526020840193506020830192505060018101905061355a565b5050509392505050565b60006135a461359f84614483565b614406565b9050828152602081018484840111156135bc57600080fd5b6135c78482856146a1565b509392505050565b60006135e26135dd846144b4565b614406565b9050828152602081018484840111156135fa57600080fd5b6136058482856146a1565b509392505050565b60008135905061361c81614f3d565b92915050565b600082601f83011261363357600080fd5b813561364384826020860161349f565b91505092915050565b600082601f83011261365d57600080fd5b813561366d848260208601613525565b91505092915050565b60008135905061368581614f54565b92915050565b60008135905061369a81614f6b565b92915050565b6000815190506136af81614f6b565b92915050565b600082601f8301126136c657600080fd5b81356136d6848260208601613591565b91505092915050565b600082601f8301126136f057600080fd5b81356137008482602086016135cf565b91505092915050565b60008135905061371881614f82565b92915050565b60006020828403121561373057600080fd5b600061373e8482850161360d565b91505092915050565b6000806040838503121561375a57600080fd5b60006137688582860161360d565b92505060206137798582860161360d565b9150509250929050565b60008060006060848603121561379857600080fd5b60006137a68682870161360d565b93505060206137b78682870161360d565b92505060406137c886828701613709565b9150509250925092565b600080600080608085870312156137e857600080fd5b60006137f68782880161360d565b94505060206138078782880161360d565b935050604061381887828801613709565b925050606085013567ffffffffffffffff81111561383557600080fd5b613841878288016136b5565b91505092959194509250565b6000806040838503121561386057600080fd5b600061386e8582860161360d565b925050602061387f85828601613676565b9150509250929050565b6000806040838503121561389c57600080fd5b60006138aa8582860161360d565b92505060206138bb85828601613709565b9150509250929050565b6000806000606084860312156138da57600080fd5b60006138e88682870161360d565b93505060206138f986828701613709565b925050604061390a86828701613709565b9150509250925092565b6000806040838503121561392757600080fd5b600083013567ffffffffffffffff81111561394157600080fd5b61394d8582860161364c565b925050602083013567ffffffffffffffff81111561396a57600080fd5b61397685828601613622565b9150509250929050565b60006020828403121561399257600080fd5b60006139a08482850161368b565b91505092915050565b6000602082840312156139bb57600080fd5b60006139c9848285016136a0565b91505092915050565b6000602082840312156139e457600080fd5b600082013567ffffffffffffffff8111156139fe57600080fd5b613a0a848285016136df565b91505092915050565b600060208284031215613a2557600080fd5b6000613a3384828501613709565b91505092915050565b60008060408385031215613a4f57600080fd5b6000613a5d85828601613709565b9250506020613a6e85828601613709565b9150509250929050565b6000613a848383613b58565b905092915050565b613a958161462d565b82525050565b6000613aa6826144f5565b613ab08185614523565b935083602082028501613ac2856144e5565b8060005b85811015613afe5784840389528151613adf8582613a78565b9450613aea83614516565b925060208a01995050600181019050613ac6565b50829750879550505050505092915050565b613b198161463f565b82525050565b6000613b2a82614500565b613b348185614534565b9350613b448185602086016146b0565b613b4d8161487c565b840191505092915050565b6000613b638261450b565b613b6d8185614545565b9350613b7d8185602086016146b0565b613b868161487c565b840191505092915050565b6000613b9c8261450b565b613ba68185614556565b9350613bb68185602086016146b0565b613bbf8161487c565b840191505092915050565b6000613bd58261450b565b613bdf8185614567565b9350613bef8185602086016146b0565b80840191505092915050565b6000613c08601483614556565b9150613c138261488d565b602082019050919050565b6000613c2b602b83614556565b9150613c36826148b6565b604082019050919050565b6000613c4e603283614556565b9150613c5982614905565b604082019050919050565b6000613c71602683614556565b9150613c7c82614954565b604082019050919050565b6000613c94601c83614556565b9150613c9f826149a3565b602082019050919050565b6000613cb7602483614556565b9150613cc2826149cc565b604082019050919050565b6000613cda601983614556565b9150613ce582614a1b565b602082019050919050565b6000613cfd602c83614556565b9150613d0882614a44565b604082019050919050565b6000613d20601c83614556565b9150613d2b82614a93565b602082019050919050565b6000613d43600f83614556565b9150613d4e82614abc565b602082019050919050565b6000613d66601083614556565b9150613d7182614ae5565b602082019050919050565b6000613d89603883614556565b9150613d9482614b0e565b604082019050919050565b6000613dac602a83614556565b9150613db782614b5d565b604082019050919050565b6000613dcf602983614556565b9150613dda82614bac565b604082019050919050565b6000613df2602e83614556565b9150613dfd82614bfb565b604082019050919050565b6000613e15602083614556565b9150613e2082614c4a565b602082019050919050565b6000613e38602a83614556565b9150613e4382614c73565b604082019050919050565b6000613e5b603183614556565b9150613e6682614cc2565b604082019050919050565b6000613e7e602c83614556565b9150613e8982614d11565b604082019050919050565b6000613ea1602083614556565b9150613eac82614d60565b602082019050919050565b6000613ec4602983614556565b9150613ecf82614d89565b604082019050919050565b6000613ee7602f83614556565b9150613ef282614dd8565b604082019050919050565b6000613f0a602183614556565b9150613f1582614e27565b604082019050919050565b6000613f2d603183614556565b9150613f3882614e76565b604082019050919050565b6000613f50602c83614556565b9150613f5b82614ec5565b604082019050919050565b6000613f73601383614556565b9150613f7e82614f14565b602082019050919050565b613f9281614697565b82525050565b6000613fa48285613bca565b9150613fb08284613bca565b91508190509392505050565b6000602082019050613fd16000830184613a8c565b92915050565b6000608082019050613fec6000830187613a8c565b613ff96020830186613a8c565b6140066040830185613f89565b81810360608301526140188184613b1f565b905095945050505050565b60006040820190506140386000830185613a8c565b6140456020830184613f89565b9392505050565b600060208201905081810360008301526140668184613a9b565b905092915050565b60006020820190506140836000830184613b10565b92915050565b600060208201905081810360008301526140a38184613b91565b905092915050565b600060208201905081810360008301526140c481613bfb565b9050919050565b600060208201905081810360008301526140e481613c1e565b9050919050565b6000602082019050818103600083015261410481613c41565b9050919050565b6000602082019050818103600083015261412481613c64565b9050919050565b6000602082019050818103600083015261414481613c87565b9050919050565b6000602082019050818103600083015261416481613caa565b9050919050565b6000602082019050818103600083015261418481613ccd565b9050919050565b600060208201905081810360008301526141a481613cf0565b9050919050565b600060208201905081810360008301526141c481613d13565b9050919050565b600060208201905081810360008301526141e481613d36565b9050919050565b6000602082019050818103600083015261420481613d59565b9050919050565b6000602082019050818103600083015261422481613d7c565b9050919050565b6000602082019050818103600083015261424481613d9f565b9050919050565b6000602082019050818103600083015261426481613dc2565b9050919050565b6000602082019050818103600083015261428481613de5565b9050919050565b600060208201905081810360008301526142a481613e08565b9050919050565b600060208201905081810360008301526142c481613e2b565b9050919050565b600060208201905081810360008301526142e481613e4e565b9050919050565b6000602082019050818103600083015261430481613e71565b9050919050565b6000602082019050818103600083015261432481613e94565b9050919050565b6000602082019050818103600083015261434481613eb7565b9050919050565b6000602082019050818103600083015261436481613eda565b9050919050565b6000602082019050818103600083015261438481613efd565b9050919050565b600060208201905081810360008301526143a481613f20565b9050919050565b600060208201905081810360008301526143c481613f43565b9050919050565b600060208201905081810360008301526143e481613f66565b9050919050565b60006020820190506144006000830184613f89565b92915050565b6000614410614421565b905061441c8282614715565b919050565b6000604051905090565b600067ffffffffffffffff8211156144465761444561484d565b5b602082029050602081019050919050565b600067ffffffffffffffff8211156144725761447161484d565b5b602082029050602081019050919050565b600067ffffffffffffffff82111561449e5761449d61484d565b5b6144a78261487c565b9050602081019050919050565b600067ffffffffffffffff8211156144cf576144ce61484d565b5b6144d88261487c565b9050602081019050919050565b6000819050602082019050919050565b600081519050919050565b600081519050919050565b600081519050919050565b6000602082019050919050565b600082825260208201905092915050565b600082825260208201905092915050565b600082825260208201905092915050565b600082825260208201905092915050565b600081905092915050565b600061457d82614697565b915061458883614697565b9250827fffffffffffffffffffffffffffffffffffffffffffffffffffffffffffffffff038211156145bd576145bc6147c0565b5b828201905092915050565b60006145d382614697565b91506145de83614697565b9250826145ee576145ed6147ef565b5b828204905092915050565b600061460482614697565b915061460f83614697565b925082821015614622576146216147c0565b5b828203905092915050565b600061463882614677565b9050919050565b60008115159050919050565b60007fffffffff0000000000000000000000000000000000000000000000000000000082169050919050565b600073ffffffffffffffffffffffffffffffffffffffff82169050919050565b6000819050919050565b82818337600083830152505050565b60005b838110156146ce5780820151818401526020810190506146b3565b838111156146dd576000848401525b50505050565b600060028204905060018216806146fb57607f821691505b6020821081141561470f5761470e61481e565b5b50919050565b61471e8261487c565b810181811067ffffffffffffffff8211171561473d5761473c61484d565b5b80604052505050565b600061475182614697565b91507fffffffffffffffffffffffffffffffffffffffffffffffffffffffffffffffff821415614784576147836147c0565b5b600182019050919050565b600061479a82614697565b91506147a583614697565b9250826147b5576147b46147ef565b5b828206905092915050565b7f4e487b7100000000000000000000000000000000000000000000000000000000600052601160045260246000fd5b7f4e487b7100000000000000000000000000000000000000000000000000000000600052601260045260246000fd5b7f4e487b7100000000000000000000000000000000000000000000000000000000600052602260045260246000fd5b7f4e487b7100000000000000000000000000000000000000000000000000000000600052604160045260246000fd5b6000601f19601f8301169050919050565b7f5061757361626c653a206e6f7420706175736564000000000000000000000000600082015250565b7f455243373231456e756d657261626c653a206f776e657220696e646578206f7560008201527f74206f6620626f756e6473000000000000000000000000000000000000000000602082015250565b7f4552433732313a207472616e7366657220746f206e6f6e20455243373231526560008201527f63656976657220696d706c656d656e7465720000000000000000000000000000602082015250565b7f4f776e61626c653a206e6577206f776e657220697320746865207a65726f206160008201527f6464726573730000000000000000000000000000000000000000000000000000602082015250565b7f4552433732313a20746f6b656e20616c7265616479206d696e74656400000000600082015250565b7f4552433732313a207472616e7366657220746f20746865207a65726f2061646460008201527f7265737300000000000000000000000000000000000000000000000000000000602082015250565b7f4552433732313a20617070726f766520746f2063616c6c657200000000000000600082015250565b7f4552433732313a206f70657261746f7220717565727920666f72206e6f6e657860008201527f697374656e7420746f6b656e0000000000000000000000000000000000000000602082015250565b7f4e6f20746f6b656e73206c65667420746f206265206d696e7465642100000000600082015250565b7f5072696365206e6f742073616d65210000000000000000000000000000000000600082015250565b7f5061757361626c653a2070617573656400000000000000000000000000000000600082015250565b7f4552433732313a20617070726f76652063616c6c6572206973206e6f74206f7760008201527f6e6572206e6f7220617070726f76656420666f7220616c6c0000000000000000602082015250565b7f4552433732313a2062616c616e636520717565727920666f7220746865207a6560008201527f726f206164647265737300000000000000000000000000000000000000000000602082015250565b7f4552433732313a206f776e657220717565727920666f72206e6f6e657869737460008201527f656e7420746f6b656e0000000000000000000000000000000000000000000000602082015250565b7f45524337323155524953746f726167653a2055524920736574206f66206e6f6e60008201527f6578697374656e7420746f6b656e000000000000000000000000000000000000602082015250565b7f4552433732313a206d696e7420746f20746865207a65726f2061646472657373600082015250565b7f4c656e677468206f6620494420616e642044617461206172726179732069732060008201527f6e6f7420657175616c2100000000000000000000000000000000000000000000602082015250565b7f45524337323155524953746f726167653a2055524920717565727920666f722060008201527f6e6f6e6578697374656e7420746f6b656e000000000000000000000000000000602082015250565b7f4552433732313a20617070726f76656420717565727920666f72206e6f6e657860008201527f697374656e7420746f6b656e0000000000000000000000000000000000000000602082015250565b7f4f776e61626c653a2063616c6c6572206973206e6f7420746865206f776e6572600082015250565b7f4552433732313a207472616e73666572206f6620746f6b656e2074686174206960008201527f73206e6f74206f776e0000000000000000000000000000000000000000000000602082015250565b7f4552433732314d657461646174613a2055524920717565727920666f72206e6f60008201527f6e6578697374656e7420746f6b656e0000000000000000000000000000000000602082015250565b7f4552433732313a20617070726f76616c20746f2063757272656e74206f776e6560008201527f7200000000000000000000000000000000000000000000000000000000000000602082015250565b7f4552433732313a207472616e736665722063616c6c6572206973206e6f74206f60008201527f776e6572206e6f7220617070726f766564000000000000000000000000000000602082015250565b7f455243373231456e756d657261626c653a20676c6f62616c20696e646578206f60008201527f7574206f6620626f756e64730000000000000000000000000000000000000000602082015250565b7f494420617272617973206e6f7420656d70747900000000000000000000000000600082015250565b614f468161462d565b8114614f5157600080fd5b50565b614f5d8161463f565b8114614f6857600080fd5b50565b614f748161464b565b8114614f7f57600080fd5b50565b614f8b81614697565b8114614f9657600080fd5b5056fea26469706673582212208806a0cefb24661943ac23debb9470b20de9ab4b0c3bd43bf5a587382d98c95b64736f6c63430008040033",
  "linkReferences": {},
  "deployedLinkReferences": {}
}