{
  "_format": "hh-sol-artifact-1",
  "contractName": "Pixel",
  "sourceName": "contracts/Pixel.sol",
  "abi": [
    {
      "inputs": [],
      "stateMutability": "nonpayable",
      "type": "constructor"
    },
    {
      "anonymous": false,
      "inputs": [
        {
          "indexed": true,
          "internalType": "address",
          "name": "owner",
          "type": "address"
        },
        {
          "indexed": true,
          "internalType": "address",
          "name": "approved",
          "type": "address"
        },
        {
          "indexed": true,
          "internalType": "uint256",
          "name": "tokenId",
          "type": "uint256"
        }
      ],
      "name": "Approval",
      "type": "event"
    },
    {
      "anonymous": false,
      "inputs": [
        {
          "indexed": true,
          "internalType": "address",
          "name": "owner",
          "type": "address"
        },
        {
          "indexed": true,
          "internalType": "address",
          "name": "operator",
          "type": "address"
        },
        {
          "indexed": false,
          "internalType": "bool",
          "name": "approved",
          "type": "bool"
        }
      ],
      "name": "ApprovalForAll",
      "type": "event"
    },
    {
      "anonymous": false,
      "inputs": [
        {
          "indexed": true,
          "internalType": "address",
          "name": "previousOwner",
          "type": "address"
        },
        {
          "indexed": true,
          "internalType": "address",
          "name": "newOwner",
          "type": "address"
        }
      ],
      "name": "OwnershipTransferred",
      "type": "event"
    },
    {
      "anonymous": false,
      "inputs": [
        {
          "indexed": false,
          "internalType": "address",
          "name": "account",
          "type": "address"
        }
      ],
      "name": "Paused",
      "type": "event"
    },
    {
      "anonymous": false,
      "inputs": [
        {
          "indexed": false,
          "internalType": "address",
          "name": "",
          "type": "address"
        },
        {
          "indexed": false,
          "internalType": "uint256",
          "name": "",
          "type": "uint256"
        }
      ],
      "name": "Received",
      "type": "event"
    },
    {
      "anonymous": false,
      "inputs": [
        {
          "indexed": true,
          "internalType": "address",
          "name": "from",
          "type": "address"
        },
        {
          "indexed": true,
          "internalType": "address",
          "name": "to",
          "type": "address"
        },
        {
          "indexed": true,
          "internalType": "uint256",
          "name": "tokenId",
          "type": "uint256"
        }
      ],
      "name": "Transfer",
      "type": "event"
    },
    {
      "anonymous": false,
      "inputs": [
        {
          "indexed": false,
          "internalType": "address",
          "name": "account",
          "type": "address"
        }
      ],
      "name": "Unpaused",
      "type": "event"
    },
    {
      "inputs": [],
      "name": "MAX_MINT",
      "outputs": [
        {
          "internalType": "uint256",
          "name": "",
          "type": "uint256"
        }
      ],
      "stateMutability": "view",
      "type": "function"
    },
    {
      "inputs": [],
      "name": "_tokenIdCounter",
      "outputs": [
        {
          "internalType": "uint256",
          "name": "_value",
          "type": "uint256"
        }
      ],
      "stateMutability": "view",
      "type": "function"
    },
    {
      "inputs": [
        {
          "internalType": "address",
          "name": "to",
          "type": "address"
        },
        {
          "internalType": "uint256",
          "name": "tokenId",
          "type": "uint256"
        }
      ],
      "name": "approve",
      "outputs": [],
      "stateMutability": "nonpayable",
      "type": "function"
    },
    {
      "inputs": [
        {
          "internalType": "address",
          "name": "owner",
          "type": "address"
        }
      ],
      "name": "balanceOf",
      "outputs": [
        {
          "internalType": "uint256",
          "name": "",
          "type": "uint256"
        }
      ],
      "stateMutability": "view",
      "type": "function"
    },
    {
      "inputs": [
        {
          "internalType": "uint256",
          "name": "tokenId",
          "type": "uint256"
        }
      ],
      "name": "getApproved",
      "outputs": [
        {
          "internalType": "address",
          "name": "",
          "type": "address"
        }
      ],
      "stateMutability": "view",
      "type": "function"
    },
    {
      "inputs": [
        {
          "internalType": "address",
          "name": "owner",
          "type": "address"
        },
        {
          "internalType": "address",
          "name": "operator",
          "type": "address"
        }
      ],
      "name": "isApprovedForAll",
      "outputs": [
        {
          "internalType": "bool",
          "name": "",
          "type": "bool"
        }
      ],
      "stateMutability": "view",
      "type": "function"
    },
    {
      "inputs": [],
      "name": "name",
      "outputs": [
        {
          "internalType": "string",
          "name": "",
          "type": "string"
        }
      ],
      "stateMutability": "view",
      "type": "function"
    },
    {
      "inputs": [
        {
          "internalType": "uint256",
          "name": "",
          "type": "uint256"
        }
      ],
      "name": "nftData",
      "outputs": [
        {
          "internalType": "string",
          "name": "",
          "type": "string"
        }
      ],
      "stateMutability": "view",
      "type": "function"
    },
    {
      "inputs": [],
      "name": "owner",
      "outputs": [
        {
          "internalType": "address",
          "name": "",
          "type": "address"
        }
      ],
      "stateMutability": "view",
      "type": "function"
    },
    {
      "inputs": [
        {
          "internalType": "uint256",
          "name": "tokenId",
          "type": "uint256"
        }
      ],
      "name": "ownerOf",
      "outputs": [
        {
          "internalType": "address",
          "name": "",
          "type": "address"
        }
      ],
      "stateMutability": "view",
      "type": "function"
    },
    {
      "inputs": [],
      "name": "pause",
      "outputs": [],
      "stateMutability": "nonpayable",
      "type": "function"
    },
    {
      "inputs": [],
      "name": "paused",
      "outputs": [
        {
          "internalType": "bool",
          "name": "",
          "type": "bool"
        }
      ],
      "stateMutability": "view",
      "type": "function"
    },
    {
      "inputs": [],
      "name": "price",
      "outputs": [
        {
          "internalType": "uint256",
          "name": "",
          "type": "uint256"
        }
      ],
      "stateMutability": "view",
      "type": "function"
    },
    {
      "inputs": [],
      "name": "renounceOwnership",
      "outputs": [],
      "stateMutability": "nonpayable",
      "type": "function"
    },
    {
      "inputs": [
        {
          "internalType": "string",
          "name": "data",
          "type": "string"
        }
      ],
      "name": "safeMint",
      "outputs": [],
      "stateMutability": "payable",
      "type": "function"
    },
    {
      "inputs": [
        {
          "internalType": "address",
          "name": "from",
          "type": "address"
        },
        {
          "internalType": "address",
          "name": "to",
          "type": "address"
        },
        {
          "internalType": "uint256",
          "name": "tokenId",
          "type": "uint256"
        }
      ],
      "name": "safeTransferFrom",
      "outputs": [],
      "stateMutability": "nonpayable",
      "type": "function"
    },
    {
      "inputs": [
        {
          "internalType": "address",
          "name": "from",
          "type": "address"
        },
        {
          "internalType": "address",
          "name": "to",
          "type": "address"
        },
        {
          "internalType": "uint256",
          "name": "tokenId",
          "type": "uint256"
        },
        {
          "internalType": "bytes",
          "name": "_data",
          "type": "bytes"
        }
      ],
      "name": "safeTransferFrom",
      "outputs": [],
      "stateMutability": "nonpayable",
      "type": "function"
    },
    {
      "inputs": [
        {
          "internalType": "address",
          "name": "operator",
          "type": "address"
        },
        {
          "internalType": "bool",
          "name": "approved",
          "type": "bool"
        }
      ],
      "name": "setApprovalForAll",
      "outputs": [],
      "stateMutability": "nonpayable",
      "type": "function"
    },
    {
      "inputs": [
        {
          "internalType": "uint256",
          "name": "newPrice",
          "type": "uint256"
        }
      ],
      "name": "setPrice",
      "outputs": [],
      "stateMutability": "nonpayable",
      "type": "function"
    },
    {
      "inputs": [
        {
          "internalType": "bytes4",
          "name": "interfaceId",
          "type": "bytes4"
        }
      ],
      "name": "supportsInterface",
      "outputs": [
        {
          "internalType": "bool",
          "name": "",
          "type": "bool"
        }
      ],
      "stateMutability": "view",
      "type": "function"
    },
    {
      "inputs": [],
      "name": "symbol",
      "outputs": [
        {
          "internalType": "string",
          "name": "",
          "type": "string"
        }
      ],
      "stateMutability": "view",
      "type": "function"
    },
    {
      "inputs": [
        {
          "internalType": "uint256",
          "name": "index",
          "type": "uint256"
        }
      ],
      "name": "tokenByIndex",
      "outputs": [
        {
          "internalType": "uint256",
          "name": "",
          "type": "uint256"
        }
      ],
      "stateMutability": "view",
      "type": "function"
    },
    {
      "inputs": [
        {
          "internalType": "address",
          "name": "owner",
          "type": "address"
        },
        {
          "internalType": "uint256",
          "name": "index",
          "type": "uint256"
        }
      ],
      "name": "tokenOfOwnerByIndex",
      "outputs": [
        {
          "internalType": "uint256",
          "name": "",
          "type": "uint256"
        }
      ],
      "stateMutability": "view",
      "type": "function"
    },
    {
      "inputs": [
        {
          "internalType": "uint256",
          "name": "tokenId",
          "type": "uint256"
        }
      ],
      "name": "tokenURI",
      "outputs": [
        {
          "internalType": "string",
          "name": "",
          "type": "string"
        }
      ],
      "stateMutability": "view",
      "type": "function"
    },
    {
      "inputs": [],
      "name": "totalSupply",
      "outputs": [
        {
          "internalType": "uint256",
          "name": "",
          "type": "uint256"
        }
      ],
      "stateMutability": "view",
      "type": "function"
    },
    {
      "inputs": [
        {
          "internalType": "address",
          "name": "from",
          "type": "address"
        },
        {
          "internalType": "address",
          "name": "to",
          "type": "address"
        },
        {
          "internalType": "uint256",
          "name": "tokenId",
          "type": "uint256"
        }
      ],
      "name": "transferFrom",
      "outputs": [],
      "stateMutability": "nonpayable",
      "type": "function"
    },
    {
      "inputs": [
        {
          "internalType": "address",
          "name": "newOwner",
          "type": "address"
        }
      ],
      "name": "transferOwnership",
      "outputs": [],
      "stateMutability": "nonpayable",
      "type": "function"
    },
    {
      "inputs": [],
      "name": "unpause",
      "outputs": [],
      "stateMutability": "nonpayable",
      "type": "function"
    },
    {
      "inputs": [],
      "name": "withdraw",
      "outputs": [],
      "stateMutability": "nonpayable",
      "type": "function"
    },
    {
      "stateMutability": "payable",
      "type": "receive"
    }
  ],
  "bytecode": "0x6080604052674563918244f40000600d553480156200001d57600080fd5b506040805180820182526005815264141a5e195b60da1b602080830191825283518085019094526009845268141a5e195b0813919560ba1b9084015281519192916200006c916000916200011a565b508051620000829060019060208401906200011a565b5050600a805460ff19169055506200009a33620000b7565b620000b1600b6200011160201b620011da1760201c565b620001fd565b600a80546001600160a01b03838116610100818102610100600160a81b031985161790945560405193909204169182907f8be0079c531659141344cd1fd0a4f28419497f9722a3daafe3b4186f6b6457e090600090a35050565b80546001019055565b8280546200012890620001c0565b90600052602060002090601f0160209004810192826200014c576000855562000197565b82601f106200016757805160ff191683800117855562000197565b8280016001018555821562000197579182015b82811115620001975782518255916020019190600101906200017a565b50620001a5929150620001a9565b5090565b5b80821115620001a55760008155600101620001aa565b600181811c90821680620001d557607f821691505b60208210811415620001f757634e487b7160e01b600052602260045260246000fd5b50919050565b612579806200020d6000396000f3fe6080604052600436106101c65760003560e01c806370a08231116100f757806395d89b4111610095578063c87b56dd11610064578063c87b56dd146104fe578063e985e9c51461051e578063f0292a0314610567578063f2fde38b1461057d57600080fd5b806395d89b4114610493578063a035b1fe146104a8578063a22cb465146104be578063b88d4fde146104de57600080fd5b806384c4bd4b116100d157806384c4bd4b146104195780638c210975146104305780638da5cb5b1461045057806391b7f5ed1461047357600080fd5b806370a08231146103cf578063715018a6146103ef5780638456cb591461040457600080fd5b80633ccfd60b116101645780634f6ccce71161013e5780634f6ccce7146103645780635c975abb146103845780636352211e1461039c578063695850fb146103bc57600080fd5b80633ccfd60b1461031a5780633f4ba83a1461032f57806342842e0e1461034457600080fd5b8063095ea7b3116101a0578063095ea7b31461029957806318160ddd146102bb57806323b872dd146102da5780632f745c59146102fa57600080fd5b806301ffc9a71461020a57806306fdde031461023f578063081812fc1461026157600080fd5b3661020557604080513381523460208201527f88a5966d370b9919b20f3e2c13ff65706f196a4e32cc2c12bf57088f88525874910160405180910390a1005b600080fd5b34801561021657600080fd5b5061022a6102253660046122d2565b61059d565b60405190151581526020015b60405180910390f35b34801561024b57600080fd5b506102546105ae565b60405161023691906123ff565b34801561026d57600080fd5b5061028161027c366004612350565b610640565b6040516001600160a01b039091168152602001610236565b3480156102a557600080fd5b506102b96102b43660046122a9565b6106da565b005b3480156102c757600080fd5b506008545b604051908152602001610236565b3480156102e657600080fd5b506102b96102f53660046121bb565b61080c565b34801561030657600080fd5b506102cc6103153660046122a9565b610893565b34801561032657600080fd5b506102b961093b565b34801561033b57600080fd5b506102b96109ce565b34801561035057600080fd5b506102b961035f3660046121bb565b610a38565b34801561037057600080fd5b506102cc61037f366004612350565b610a53565b34801561039057600080fd5b50600a5460ff1661022a565b3480156103a857600080fd5b506102816103b7366004612350565b610b05565b6102b96103ca36600461230a565b610b90565b3480156103db57600080fd5b506102cc6103ea36600461216f565b610ce9565b3480156103fb57600080fd5b506102b9610d83565b34801561041057600080fd5b506102b9610ded565b34801561042557600080fd5b50600b546102cc9081565b34801561043c57600080fd5b5061025461044b366004612350565b610e55565b34801561045c57600080fd5b50600a5461010090046001600160a01b0316610281565b34801561047f57600080fd5b506102b961048e366004612350565b610eef565b34801561049f57600080fd5b50610254610f54565b3480156104b457600080fd5b506102cc600d5481565b3480156104ca57600080fd5b506102b96104d936600461226f565b610f63565b3480156104ea57600080fd5b506102b96104f93660046121f6565b610f6e565b34801561050a57600080fd5b50610254610519366004612350565b610ffc565b34801561052a57600080fd5b5061022a610539366004612189565b6001600160a01b03918216600090815260056020908152604080832093909416825291909152205460ff1690565b34801561057357600080fd5b506102cc61138881565b34801561058957600080fd5b506102b961059836600461216f565b6110f2565b60006105a8826111e3565b92915050565b6060600080546105bd90612481565b80601f01602080910402602001604051908101604052809291908181526020018280546105e990612481565b80156106365780601f1061060b57610100808354040283529160200191610636565b820191906000526020600020905b81548152906001019060200180831161061957829003601f168201915b5050505050905090565b6000818152600260205260408120546001600160a01b03166106be5760405162461bcd60e51b815260206004820152602c60248201527f4552433732313a20617070726f76656420717565727920666f72206e6f6e657860448201526b34b9ba32b73a103a37b5b2b760a11b60648201526084015b60405180910390fd5b506000908152600460205260409020546001600160a01b031690565b60006106e582610b05565b9050806001600160a01b0316836001600160a01b0316141561076f5760405162461bcd60e51b815260206004820152602160248201527f4552433732313a20617070726f76616c20746f2063757272656e74206f776e6560448201527f720000000000000000000000000000000000000000000000000000000000000060648201526084016106b5565b336001600160a01b038216148061078b575061078b8133610539565b6107fd5760405162461bcd60e51b815260206004820152603860248201527f4552433732313a20617070726f76652063616c6c6572206973206e6f74206f7760448201527f6e6572206e6f7220617070726f76656420666f7220616c6c000000000000000060648201526084016106b5565b6108078383611221565b505050565b610816338261129c565b6108885760405162461bcd60e51b815260206004820152603160248201527f4552433732313a207472616e736665722063616c6c6572206973206e6f74206f60448201527f776e6572206e6f7220617070726f76656400000000000000000000000000000060648201526084016106b5565b610807838383611393565b600061089e83610ce9565b82106109125760405162461bcd60e51b815260206004820152602b60248201527f455243373231456e756d657261626c653a206f776e657220696e646578206f7560448201527f74206f6620626f756e647300000000000000000000000000000000000000000060648201526084016106b5565b506001600160a01b03919091166000908152600660209081526040808320938352929052205490565b600a546001600160a01b0361010090910416331461099b5760405162461bcd60e51b815260206004820181905260248201527f4f776e61626c653a2063616c6c6572206973206e6f7420746865206f776e657260448201526064016106b5565b6040514790339082156108fc029083906000818181858888f193505050501580156109ca573d6000803e3d6000fd5b5050565b600a546001600160a01b03610100909104163314610a2e5760405162461bcd60e51b815260206004820181905260248201527f4f776e61626c653a2063616c6c6572206973206e6f7420746865206f776e657260448201526064016106b5565b610a36611578565b565b61080783838360405180602001604052806000815250610f6e565b6000610a5e60085490565b8210610ad25760405162461bcd60e51b815260206004820152602c60248201527f455243373231456e756d657261626c653a20676c6f62616c20696e646578206f60448201527f7574206f6620626f756e6473000000000000000000000000000000000000000060648201526084016106b5565b60088281548110610af357634e487b7160e01b600052603260045260246000fd5b90600052602060002001549050919050565b6000818152600260205260408120546001600160a01b0316806105a85760405162461bcd60e51b815260206004820152602960248201527f4552433732313a206f776e657220717565727920666f72206e6f6e657869737460448201527f656e7420746f6b656e000000000000000000000000000000000000000000000060648201526084016106b5565b600a5460ff1615610bd65760405162461bcd60e51b815260206004820152601060248201526f14185d5cd8589b194e881c185d5cd95960821b60448201526064016106b5565b6000610be1600b5490565b9050611388811115610c355760405162461bcd60e51b815260206004820152601c60248201527f4e6f20746f6b656e73206c65667420746f206265206d696e746564210000000060448201526064016106b5565b600a5461010090046001600160a01b03166001600160a01b0316336001600160a01b03161480610c66575034600d54145b610cb25760405162461bcd60e51b815260206004820152600f60248201527f5072696365206e6f742073616d6521000000000000000000000000000000000060448201526064016106b5565b610cc0600b80546001019055565b610cca3382611614565b6000818152600c60209081526040909120835161080792850190612044565b60006001600160a01b038216610d675760405162461bcd60e51b815260206004820152602a60248201527f4552433732313a2062616c616e636520717565727920666f7220746865207a6560448201527f726f20616464726573730000000000000000000000000000000000000000000060648201526084016106b5565b506001600160a01b031660009081526003602052604090205490565b600a546001600160a01b03610100909104163314610de35760405162461bcd60e51b815260206004820181905260248201527f4f776e61626c653a2063616c6c6572206973206e6f7420746865206f776e657260448201526064016106b5565b610a36600061162e565b600a546001600160a01b03610100909104163314610e4d5760405162461bcd60e51b815260206004820181905260248201527f4f776e61626c653a2063616c6c6572206973206e6f7420746865206f776e657260448201526064016106b5565b610a3661169f565b600c6020526000908152604090208054610e6e90612481565b80601f0160208091040260200160405190810160405280929190818152602001828054610e9a90612481565b8015610ee75780601f10610ebc57610100808354040283529160200191610ee7565b820191906000526020600020905b815481529060010190602001808311610eca57829003601f168201915b505050505081565b600a546001600160a01b03610100909104163314610f4f5760405162461bcd60e51b815260206004820181905260248201527f4f776e61626c653a2063616c6c6572206973206e6f7420746865206f776e657260448201526064016106b5565b600d55565b6060600180546105bd90612481565b6109ca33838361171a565b610f78338361129c565b610fea5760405162461bcd60e51b815260206004820152603160248201527f4552433732313a207472616e736665722063616c6c6572206973206e6f74206f60448201527f776e6572206e6f7220617070726f76656400000000000000000000000000000060648201526084016106b5565b610ff6848484846117e9565b50505050565b6000818152600260205260409020546060906001600160a01b03166110895760405162461bcd60e51b815260206004820152602f60248201527f4552433732314d657461646174613a2055524920717565727920666f72206e6f60448201527f6e6578697374656e7420746f6b656e000000000000000000000000000000000060648201526084016106b5565b60006110a060408051602081019091526000815290565b905060008151116110c057604051806020016040528060008152506110eb565b806110ca84611867565b6040516020016110db929190612394565b6040516020818303038152906040525b9392505050565b600a546001600160a01b036101009091041633146111525760405162461bcd60e51b815260206004820181905260248201527f4f776e61626c653a2063616c6c6572206973206e6f7420746865206f776e657260448201526064016106b5565b6001600160a01b0381166111ce5760405162461bcd60e51b815260206004820152602660248201527f4f776e61626c653a206e6577206f776e657220697320746865207a65726f206160448201527f646472657373000000000000000000000000000000000000000000000000000060648201526084016106b5565b6111d78161162e565b50565b80546001019055565b60006001600160e01b031982167f780e9d630000000000000000000000000000000000000000000000000000000014806105a857506105a8826119b5565b6000818152600460205260409020805473ffffffffffffffffffffffffffffffffffffffff19166001600160a01b038416908117909155819061126382610b05565b6001600160a01b03167f8c5be1e5ebec7d5bd14f71427d1e84f3dd0314c0f7b2291e5b200ac8c7c3b92560405160405180910390a45050565b6000818152600260205260408120546001600160a01b03166113155760405162461bcd60e51b815260206004820152602c60248201527f4552433732313a206f70657261746f7220717565727920666f72206e6f6e657860448201526b34b9ba32b73a103a37b5b2b760a11b60648201526084016106b5565b600061132083610b05565b9050806001600160a01b0316846001600160a01b0316148061135b5750836001600160a01b031661135084610640565b6001600160a01b0316145b8061138b57506001600160a01b0380821660009081526005602090815260408083209388168352929052205460ff165b949350505050565b826001600160a01b03166113a682610b05565b6001600160a01b0316146114225760405162461bcd60e51b815260206004820152602560248201527f4552433732313a207472616e736665722066726f6d20696e636f72726563742060448201527f6f776e657200000000000000000000000000000000000000000000000000000060648201526084016106b5565b6001600160a01b03821661149d5760405162461bcd60e51b8152602060048201526024808201527f4552433732313a207472616e7366657220746f20746865207a65726f2061646460448201527f726573730000000000000000000000000000000000000000000000000000000060648201526084016106b5565b6114a8838383611a50565b6114b3600082611221565b6001600160a01b03831660009081526003602052604081208054600192906114dc90849061243e565b90915550506001600160a01b038216600090815260036020526040812080546001929061150a908490612412565b9091555050600081815260026020526040808220805473ffffffffffffffffffffffffffffffffffffffff19166001600160a01b0386811691821790925591518493918716917fddf252ad1be2c89b69c2b068fc378daa952ba7f163c4a11628f55a4df523b3ef91a4505050565b600a5460ff166115ca5760405162461bcd60e51b815260206004820152601460248201527f5061757361626c653a206e6f742070617573656400000000000000000000000060448201526064016106b5565b600a805460ff191690557f5db9ee0a495bf2e6ff9c91a7834c1ba4fdd244a5e8aa4e537bd38aeae4b073aa335b6040516001600160a01b03909116815260200160405180910390a1565b6109ca828260405180602001604052806000815250611aa1565b600a80546001600160a01b038381166101008181027fffffffffffffffffffffff0000000000000000000000000000000000000000ff85161790945560405193909204169182907f8be0079c531659141344cd1fd0a4f28419497f9722a3daafe3b4186f6b6457e090600090a35050565b600a5460ff16156116e55760405162461bcd60e51b815260206004820152601060248201526f14185d5cd8589b194e881c185d5cd95960821b60448201526064016106b5565b600a805460ff191660011790557f62e78cea01bee320cd4e420270b5ea74000d11b0c9f74754ebdbfc544b05a2586115f73390565b816001600160a01b0316836001600160a01b0316141561177c5760405162461bcd60e51b815260206004820152601960248201527f4552433732313a20617070726f766520746f2063616c6c65720000000000000060448201526064016106b5565b6001600160a01b03838116600081815260056020908152604080832094871680845294825291829020805460ff191686151590811790915591519182527f17307eab39ab6107e8899845ad3d59bd9653f200f220920489ca2b5937696c31910160405180910390a3505050565b6117f4848484611393565b61180084848484611b1f565b610ff65760405162461bcd60e51b815260206004820152603260248201527f4552433732313a207472616e7366657220746f206e6f6e20455243373231526560448201527131b2b4bb32b91034b6b83632b6b2b73a32b960711b60648201526084016106b5565b6060816118a757505060408051808201909152600181527f3000000000000000000000000000000000000000000000000000000000000000602082015290565b8160005b81156118d157806118bb816124bc565b91506118ca9050600a8361242a565b91506118ab565b60008167ffffffffffffffff8111156118fa57634e487b7160e01b600052604160045260246000fd5b6040519080825280601f01601f191660200182016040528015611924576020820181803683370190505b5090505b841561138b5761193960018361243e565b9150611946600a866124d7565b611951906030612412565b60f81b81838151811061197457634e487b7160e01b600052603260045260246000fd5b60200101907effffffffffffffffffffffffffffffffffffffffffffffffffffffffffffff1916908160001a9053506119ae600a8661242a565b9450611928565b60006001600160e01b031982167f80ac58cd000000000000000000000000000000000000000000000000000000001480611a1857506001600160e01b031982167f5b5e139f00000000000000000000000000000000000000000000000000000000145b806105a857507f01ffc9a7000000000000000000000000000000000000000000000000000000006001600160e01b03198316146105a8565b600a5460ff1615611a965760405162461bcd60e51b815260206004820152601060248201526f14185d5cd8589b194e881c185d5cd95960821b60448201526064016106b5565b610807838383611c77565b611aab8383611d2f565b611ab86000848484611b1f565b6108075760405162461bcd60e51b815260206004820152603260248201527f4552433732313a207472616e7366657220746f206e6f6e20455243373231526560448201527131b2b4bb32b91034b6b83632b6b2b73a32b960711b60648201526084016106b5565b60006001600160a01b0384163b15611c6c57604051630a85bd0160e11b81526001600160a01b0385169063150b7a0290611b639033908990889088906004016123c3565b602060405180830381600087803b158015611b7d57600080fd5b505af1925050508015611bad575060408051601f3d908101601f19168201909252611baa918101906122ee565b60015b611c52573d808015611bdb576040519150601f19603f3d011682016040523d82523d6000602084013e611be0565b606091505b508051611c4a5760405162461bcd60e51b815260206004820152603260248201527f4552433732313a207472616e7366657220746f206e6f6e20455243373231526560448201527131b2b4bb32b91034b6b83632b6b2b73a32b960711b60648201526084016106b5565b805181602001fd5b6001600160e01b031916630a85bd0160e11b14905061138b565b506001949350505050565b6001600160a01b038316611cd257611ccd81600880546000838152600960205260408120829055600182018355919091527ff3f7a9fe364faab93b216da50a3214154f22a0a2b415b23a84c8169e8b636ee30155565b611cf5565b816001600160a01b0316836001600160a01b031614611cf557611cf58382611e8a565b6001600160a01b038216611d0c5761080781611f27565b826001600160a01b0316826001600160a01b031614610807576108078282612000565b6001600160a01b038216611d855760405162461bcd60e51b815260206004820181905260248201527f4552433732313a206d696e7420746f20746865207a65726f206164647265737360448201526064016106b5565b6000818152600260205260409020546001600160a01b031615611dea5760405162461bcd60e51b815260206004820152601c60248201527f4552433732313a20746f6b656e20616c7265616479206d696e7465640000000060448201526064016106b5565b611df660008383611a50565b6001600160a01b0382166000908152600360205260408120805460019290611e1f908490612412565b9091555050600081815260026020526040808220805473ffffffffffffffffffffffffffffffffffffffff19166001600160a01b03861690811790915590518392907fddf252ad1be2c89b69c2b068fc378daa952ba7f163c4a11628f55a4df523b3ef908290a45050565b60006001611e9784610ce9565b611ea1919061243e565b600083815260076020526040902054909150808214611ef4576001600160a01b03841660009081526006602090815260408083208584528252808320548484528184208190558352600790915290208190555b5060009182526007602090815260408084208490556001600160a01b039094168352600681528383209183525290812055565b600854600090611f399060019061243e565b60008381526009602052604081205460088054939450909284908110611f6f57634e487b7160e01b600052603260045260246000fd5b906000526020600020015490508060088381548110611f9e57634e487b7160e01b600052603260045260246000fd5b6000918252602080832090910192909255828152600990915260408082208490558582528120556008805480611fe457634e487b7160e01b600052603160045260246000fd5b6001900381819060005260206000200160009055905550505050565b600061200b83610ce9565b6001600160a01b039093166000908152600660209081526040808320868452825280832085905593825260079052919091209190915550565b82805461205090612481565b90600052602060002090601f01602090048101928261207257600085556120b8565b82601f1061208b57805160ff19168380011785556120b8565b828001600101855582156120b8579182015b828111156120b857825182559160200191906001019061209d565b506120c49291506120c8565b5090565b5b808211156120c457600081556001016120c9565b600067ffffffffffffffff808411156120f8576120f8612517565b604051601f8501601f19908116603f0116810190828211818310171561212057612120612517565b8160405280935085815286868601111561213957600080fd5b858560208301376000602087830101525050509392505050565b80356001600160a01b038116811461216a57600080fd5b919050565b600060208284031215612180578081fd5b6110eb82612153565b6000806040838503121561219b578081fd5b6121a483612153565b91506121b260208401612153565b90509250929050565b6000806000606084860312156121cf578081fd5b6121d884612153565b92506121e660208501612153565b9150604084013590509250925092565b6000806000806080858703121561220b578081fd5b61221485612153565b935061222260208601612153565b925060408501359150606085013567ffffffffffffffff811115612244578182fd5b8501601f81018713612254578182fd5b612263878235602084016120dd565b91505092959194509250565b60008060408385031215612281578182fd5b61228a83612153565b91506020830135801515811461229e578182fd5b809150509250929050565b600080604083850312156122bb578182fd5b6122c483612153565b946020939093013593505050565b6000602082840312156122e3578081fd5b81356110eb8161252d565b6000602082840312156122ff578081fd5b81516110eb8161252d565b60006020828403121561231b578081fd5b813567ffffffffffffffff811115612331578182fd5b8201601f81018413612341578182fd5b61138b848235602084016120dd565b600060208284031215612361578081fd5b5035919050565b60008151808452612380816020860160208601612455565b601f01601f19169290920160200192915050565b600083516123a6818460208801612455565b8351908301906123ba818360208801612455565b01949350505050565b60006001600160a01b038087168352808616602084015250836040830152608060608301526123f56080830184612368565b9695505050505050565b6020815260006110eb6020830184612368565b60008219821115612425576124256124eb565b500190565b60008261243957612439612501565b500490565b600082821015612450576124506124eb565b500390565b60005b83811015612470578181015183820152602001612458565b83811115610ff65750506000910152565b600181811c9082168061249557607f821691505b602082108114156124b657634e487b7160e01b600052602260045260246000fd5b50919050565b60006000198214156124d0576124d06124eb565b5060010190565b6000826124e6576124e6612501565b500690565b634e487b7160e01b600052601160045260246000fd5b634e487b7160e01b600052601260045260246000fd5b634e487b7160e01b600052604160045260246000fd5b6001600160e01b0319811681146111d757600080fdfea2646970667358221220acac9180e4efffbb2f426a2c300ce7584af9808227e68a60b6b18948b300d46664736f6c63430008040033",
  "linkReferences": {},
  "deployedLinkReferences": {}
}